S011000050574D305F746573742E73726563D0
S11300000C942A000C9447000C9447000C9447006D
S11300100C9447000C9447000C9447000C94470040
S11300200C9447000C9447000C9447000C94470030
S11300300C9447000C9447000C9447000C94470020
S11300400C9447000C9447000C9447000C94470010
S11300500C94470011241FBECFE5D8E0DEBFCDBF0E
S113006010E0A0E6B0E0EAE7F8E002C005900D92E7
S1130070AC38B107D9F720E0ACE8B0E001C01D927C
S1130080AD38B207E1F70E94A3020C943B040C9430
S11300900000843008F07EC0683008F07BC0423035
S11300A008F078C0813019F130F08230E1F183300A
S11300B009F455C00895442319F0413069F00895B6
S11300C02AB381E090E002C0880F991F6A95E2F795
S11300D0809582238ABB08952AB381E090E002C010
S11300E0880F991F6A95E2F7822B8ABB08954423EF
S11300F019F0413069F0089527B381E090E002C01F
S1130100880F991F6A95E2F78095822387BB08952B
S113011027B381E090E002C0880F991F6A95E2F747
S1130120822B87BB0895442319F0413069F0089568
S113013024B381E090E002C0880F991F6A95E2F72A
S11301408095822384BB089524B381E090E002C0AB
S1130150880F991F6A95E2F7822B84BB0895442384
S113016019F0413069F0089521B381E090E002C0B4
S1130170880F991F6A95E2F78095822381BB0895C1
S113018021B381E090E002C0880F991F6A95E2F7DD
S1130190822B81BB0895843008F07EC0683008F05B
S11301A07BC0423008F078C0813019F130F08230E1
S11301B0E1F1833009F455C00895442319F0413026
S11301C069F008952BB381E090E002C0880F991F75
S11301D06A95E2F7809582238BBB08952BB381E067
S11301E090E002C0880F991F6A95E2F7822B8BBBBF
S11301F00895442319F0413069F0089528B381E04B
S113020090E002C0880F991F6A95E2F780958223D7
S113021088BB089528B381E090E002C0880F991F3D
S11302206A95E2F7822B88BB0895442319F0413084
S113023069F0089525B381E090E002C0880F991F0A
S11302406A95E2F78095822385BB089525B381E002
S113025090E002C0880F991F6A95E2F7822B85BB54
S11302600895442319F0413069F0089522B381E0E0
S113027090E002C0880F991F6A95E2F78095822367
S113028082BB089522B381E090E002C0880F991FD9
S11302906A95E2F7822B82BB0895CF93C82F482F2B
S11302A0417064E080E00E94CB00C1FB442740F928
S11302B065E080E00E94CB00C2FB442740F966E081
S11302C080E00E94CB00C3FB442740F967E080E054
S11302D00E94CB00CF91089541E062E081E00E944A
S11302E0CB008FE99FE00197F1F700C0000040E0E8
S11302F062E081E00E94CB000895CF93C82F40E0D4
S113030061E081E00E94CB008C2F82958F700E9467
S11303104D010E946C018C2F0E944D010E946C01C2
S1130320CF91089541E061E081E00E94490041E0FD
S113033062E081E00E9449002FE785EB91E02150C3
S113034080409040E1F700C0000041E064E080E0BC
S11303500E94490041E065E080E00E94490041E0DC
S113036066E080E00E94490041E067E080E00E948E
S1130370490040E061E081E00E94CB0082E00E94FD
S11303804D010E946C0188E20E947D0120EF2A95B4
S1130390F1F78FE00E947D0180EF8A95F1F781E00B
S11303A00E947D018FE39FE10197F1F700C00000F7
S11303B086E00E947D010895CF93C82F41E061E05B
S11303C081E00E94CB008C2F82958F700E944D019A
S11303D00E946C018C2F0E944D010E946C01CF91F0
S11303E008950F931F93CF93009729F40CC00E9494
S11303F0DC01CF5F02C08C01C0E0F801EC0FF11DFD
S113040080818111F4CFCF911F910F910895CF92E4
S1130410DF92EF92FF920F931F938B019C01672B46
S1130420682B692B49F580E30E94DC0145C0DC019F
S1130430CB01880F991FAA1FBB1F6C017D01CC0C37
S1130440DD1CEE1CFF1CCC0CDD1CEE1CFF1CC80EBE
S1130450D91EEA1EFB1EC901B8012AE030E040E0C3
S113046050E00E9405046C0D7D1D8E1D9F1D022F02
S1130470132F242F352F04C061E070E080E090E05A
S1130480011511052105310591F62AE030E040E01F
S113049050E00E940504E22EF32E042F152F80E372
S11304A0860F0E94DC016E2D7F2D802F912F6130ED
S11304B071058105910549F71F910F91FF90EF9008
S11304C0DF90CF90089581E00E947D018FE39FE14A
S11304D00197F1F700C0000008951F93CF93DF93B5
S11304E0182FD62F81110EC08BE20E947D0180E867
S11304F00E947D01C0E004C087E10E947D01CF5FBE
S1130500CD17D0F3113071F48BE20E947D0180ECA1
S11305100E947D01C0E004C087E10E947D01CF5F9D
S1130520CD17D0F3DF91CF911F910895882319F04F
S1130530813029F008958BE10E947D0108958FE1B7
S11305400E947D0108950E94920180E690E00E943D
S1130550F1016AEF70E080E090E00E9407028BE610
S113056090E00E94F10160E081E00E946D028FE65C
S113057090E00E94F10169E170E080E090E00E9467
S1130580070285E20E94DC012FEF87EA91E6215001
S113059080409040E1F700C000000E9463028CE7B5
S11305A090E00E94F10161E070E080E090E00E9440
S11305B0070282E890E00E94F10160E081E00E947D
S11305C06D0285E890E00E94F10163E070E080E054
S11305D090E00E94070282E890E00E94F1012FEF70
S11305E087EA91E6215080409040E1F700C0000086
S11305F00E94630241E063E081E00E9449000E949E
S11306006A0389E10E947703D0E0C0E009C08DE26B
S11306100E94DC0180918C008F5F80938C00CF5FFF
S11306206C2F70E080E090E00E94920320E030E0C4
S113063040E85FE30E948B0388234CF38CE70E941D
S1130640DC0160918C0081E0860F80938C0081E056
S11306500E946D028CE70E94DC01C0E009C08DE2BB
S11306600E94DC0180918C008F5F80938C00CF5FAF
S11306706C2F70E080E090E00E94920320E030E074
S113068040E450E40E948B0388234CF38CE70E94DF
S1130690DC0160918C0081E0860F80938C0080E007
S11306A00E946D028CE70E94DC012FEF83ED90E342
S11306B0215080409040E1F700C00000DB5FDD3254
S11306C029F40E94630210928C00D0E080E00E9422
S11306D096029BCF83B7806483BF83B7886083BF50
S11306E083B78F7E83BF83B7806283BF08958536C7
S11306F088F4982F80E064E670E00E94F103615072
S11307006CBF83B7816083BF83B7826083BF83B7C5
S11307108B7F83BF08950E94CD0308F481E0089580
S1130720E89409C097FB3EF4909580957095619587
S11307307F4F8F4F9F4F9923A9F0F92F96E9BB273D
S11307409395F695879577956795B795F111F8CFB9
S1130750FAF4BB0F11F460FF1BC06F5F7F4F8F4F24
S11307609F4F16C0882311F096E911C0772321F01A
S11307709EE8872F762F05C0662371F096E8862FB2
S113078070E060E02AF09A95660F771F881FDAF709
S1130790880F9695879597F90895990F0008550F36
S11307A0AA0BE0E8FEEF16161706E807F907C0F0F3
S11307B012161306E407F50798F0621B730B840BFB
S11307C0950B39F40A2661F0232B242B252B21F4D5
S11307D008950A2609F4A140A6958FEF811D811D75
S11307E0089597FB072E16F4009407D077FD09D0DF
S11307F00E94270407FC05D03EF4909581959F4FF5
S11308000895709561957F4F0895A1E21A2EAA1B51
S1130810BB1BFD010DC0AA1FBB1FEE1FFF1FA217AC
S1130820B307E407F50720F0A21BB30BE40BF50BA9
S1130830661F771F881F991F1A9469F76095709532
S1130840809590959B01AC01BD01CF010895AA1B31
S1130850BB1B51E107C0AA1FBB1FA617B70710F0A7
S1130860A61BB70B881F991F5A95A9F780959095D9
S10D0870BC01CD010895F894FFCFF8
S113087A4672657175656E63793A004B487A00442D
S113088A757479204379636C653A2000746F6E3A03
S10F089A2000757300746F66663A20003D
S9030000FC
